:020000040800F2
:100000002008002099010008B9210008F51E000809
:10001000B5210008F9080008592300080000000075
:10002000000000000000000000000000C1210008E6
:10003000FD08000800000000BD210008C5210008DF
:10004000B3010008B3010008B3010008B3010008C0
:10005000B3010008B3010008B3010008B3010008B0
:10006000B3010008B3010008B3010008B3010008A0
:10007000B3010008B3010008B3010008B301000890
:10008000B3010008B3010008B3010008B301000880
:10009000B3010008B3010008B3010008B301000870
:1000A000B3010008B3010008B3010008B301000860
:1000B000B3010008B3010008B3010008B301000850
:1000C000B3010008B3010008B3010008B301000840
:1000D000B301000891220008B3010008B301000831
:1000E000B3010008B3010008B301000800F002F8F2
:1000F00000F043F80AA090E8000C82448344AAF17F
:100100000107DA4501D100F038F8AFF2090EBAE87C
:100110000F0013F0010F18BFFB1A43F0010318473B
:100120001824000038240000103A24BF78C878C191
:10013000FAD8520724BF30C830C144BF04680C60ED
:10014000704700000023002400250026103A28BF35
:1001500078C1FBD8520728BF30C148BF0B60704739
:100160001FB500F07DFB04000020002102F0B8F96B
:10017000401C60601FBD10B510BD00F035FB11467E
:10018000FFF7EEFF02F0EAF800F05CFB03B4FFF7C4
:10019000F2FF03BC00F0A8FB09488047094800476C
:1001A000FEE7FEE7FEE7FEE7FEE7FEE7FEE7FEE727
:1001B000FEE7FEE704480549054A064B7047000084
:1001C000C9210008ED0000082002002020080020BE
:1001D00020040020200400200FB400B58DB010A929
:1001E000099000910B904FF0FF300A9000200C9086
:1001F000064878440690064878446A4607900F9966
:1002000009A800F0FDF80DB05DF814FB2B0200000A
:10021000430200002DE9FF5F1D464FF0FF3B914672
:100220004FF000085F46D5E90146A96901987F1C97
:100230008847296A824688470028F6D1BAF1FF3FED
:100240000CD0002E24F4C06419DD600614D5BAF178
:100250002B0F09D0BAF12D0F0ED103E0584604B090
:10026000BDE8F09F44F48064A96901987F1C884729
:10027000761E8246002E02DDBAF1300F03D0B9F1AE
:10028000000F26D032E0A969761E01987F1C44F445
:1002900000748847002E824605DDBAF1780F06D03B
:1002A000BAF1580F03D0B9F1000F10D01EE0B9F128
:1002B000000F02D0B9F1100F18D1A969761E01986C
:1002C0007F1C24F4007488478246102002E0082036
:1002D00000E00A20814609E0A96908FB0908761EAA
:1002E00001987F1C44F4007488478246002E05DD87
:1002F0004946504600F070F80028EDDAE9690198A7
:100300008847A00502D46FF00100A8E7E00725D1D7
:10031000600613D5600502D5C8F1000000E0404634
:1003200029680A1D2A600968220501D5087015E0B0
:10033000220701D5088011E008600FE02868011D40
:1003400029600068210502D580F8008006E02107B9
:1003500002D5A0F8008001E0C0F8008038467EE7B2
:1003600030B505460B462A4613F8014B12F8010B2F
:1003700008B1A042F8D01CB1002802D06D1CF1E7F2
:10038000284630BD4FF0000200B51346944696460D
:10039000203922BFA0E80C50A0E80C50B1F1200198
:1003A000BFF4F7AF090728BFA0E80C5048BF0CC046
:1003B0005DF804EB890028BF40F8042B08BF7047A4
:1003C00048BF20F8022B11F0804F18BF00F8012B16
:1003D00070477047704770473A2800D2303820F095
:1003E0002002412A01D3A2F13700884201D34FF005
:1003F000FF30704702681144137801601846704757
:10040000D160054979445161044979441162002160
:100410001161114600F02EB8EDFFFFFF5300000000
:10042000426842B1016811F8013B23B1521EC0E994
:100430000012184670470121C160881E704742684B
:100440005AB1C368016843B983688B4205D0491E1D
:10045000521CC0E90012002070474FF0FF30704777
:1004600010B5044600F0E6F90068005D00F00100F8
:1004700010BD00002DE9F34F4FF0000A0C46564620
:100480008DB001200C9001F10C000B9062690B986B
:1004900001219047051E2DD0252D2CD0216A88479B
:1004A000C0B162690B9801219047216A88470028F2
:1004B000F7D16269411E0B98904700E0761CA16954
:1004C0000D988847216A88470028F7D1E1690D987F
:1004D0008847DBE7A1690D988847A842074601D104
:1004E000761CD3E7E1690D9888477F1C02D1BAF1E9
:1004F000000F6FD06BE162690B9800273D463946CB
:1005000090472A2804D162690B9801219047012560
:10051000DFF8D08262690B9801219047A0F1300189
:100520000A290AD24745E5DC07EB870100EB4107C2
:10053000303FDFD445F01005ECE7E90601D46FF059
:1005400000476C280AD04C2814D0682815D06A2897
:100550000DD074281CD07A281AD01DE062690B983F
:10056000012190476C2802D045F0040514E045F0C5
:1005700002050DE045F020050AE062690B980121B3
:100580009047682802D045F0080505E045F400656D
:1005900062690B9801219047C4E9015765283DD055
:1005A00019DC58287AD00CDC452837D004DC252803
:1005B00026D041289ED131E046282FD0472899D116
:1005C0002CE05B2877D0612828D063287CD0642871
:1005D00023D15AE0F6E06F2848D008DC66281DD009
:1005E00067281BD0692821D06E2816D127E07028F3
:1005F00045D0732868D0752847D078280DD14DE0B4
:10060000A1690D988847252805463FF469AFE1693F
:100610000D9888476D1C3FF46AAFD8E00D992346CA
:100620006A466FF00100AFF30080C5E045F040007E
:1006300023464FF000026060A80736D43EE0E8078A
:100640007FF447AF2068011D21600068290501D5AE
:1006500006701BE7290701D5068017E7A90703D510
:10066000F117C0E9006111E706600FE745F04000AF
:1006700023464FF008026060A80716D41EE040F63B
:100680000E0125EA0100606016E045F040002346B7
:100690004FF00A026060A80707D40FE045F0400061
:1006A0006060A80708D5234610220D996FF001005D
:1006B000AFF3008080E007E0102223460D996FF031
:1006C0000100FFF7A7FD77E04FF0000963284F46D0
:1006D000C8464B46CB4602D05B2806D038E0E80639
:1006E00001D40120A060012732E06269D4F80CB087
:1006F0000B98012190475E2807D14FF00109494628
:100700006269D4F80CB00B989047216939B900217F
:100710000A4603AB43F82120491C0829FADBD8B369
:10072000216949B308F1010862690B9801219047DA
:100730005D28F4D1B9F1000F09D0002003A951F8C8
:100740002020D24341F82020401C0828F7DB03ABCF
:100750002069002820794FEA40701ED05B4622466F
:10076000CDF80080CDE901970D9900286FF00100C8
:1007700020DAAFF300801FE0C11703AA00EBD161BC
:100780004B1121F01F0102EB8302411A1368012073
:10079000884003431360C7E719E00D9922460028FB
:1007A0006FF00100009702DAAFF3008004E0AFF3CE
:1007B000008001E0AFF3008000280ADA401C06D177
:1007C0000C9820B14FF0FF300FB0BDE8F08F5046CD
:1007D000FAE7E90701D10AF1010A064400200C906A
:1007E00054E60000CCCCCC0C754600F035F8AE4693
:1007F00005006946534620F00700854618B020B52D
:10080000FFF7D8FCBDE820404FF000064FF000078E
:100810004FF000084FF0000BAC46ACE8C009ACE864
:10082000C009ACE8C009ACE8C00921F007018D4659
:100830007047000010B500F013F8001D10BD00BF98
:10084000A11C000010B50446AFF300802046BDE8AF
:100850001040FFF79BBC00000048704710000020CC
:1008600000487047300000204FF0013C50F8042B46
:1008700051F8043B9A4221D1A2EB0C03934313EAB3
:10088000CC1317D150F8042B51F8043B9A4215D1E0
:10089000A2EB0C03934313EACC130BD150F8042BB7
:1008A00051F8043B9A4209D1A2EB0C03934313EA9B
:1008B000CC13DBD04FF00000704700BFD01A01BA54
:1008C000B1FA81F101F0180122FA01F0CB40DBB25C
:1008D000C0B2C01AC1F120012CFA01F3D11A914320
:1008E00011EAC311E6D1704701491820ABBEFEE7FB
:1008F0002600020070470000FEE70000704700007D
:10090000EFF3108072B600BFFEE70000014690F8DA
:100910002100022816D10868D1E90FC3026822F02D
:100920000E020260026822F001020260012000FA59
:1009300003F2CCF8042081F821000020002281F885
:1009400020207047042088630120002281F82020A5
:100950007047000080B590F82110022924D1026868
:10096000116821F00E0111602F211368C4F20201F9
:100970008A4240F20401C4F2020123F00103136031
:1009800016DD3023C4F202039A421DD04423C4F280
:1009900002039A421CD05823C4F202039A421DD18A
:1009A0004FF4803322E000BF04218163012080BD29
:1009B0000823C4F202039A420ED01C23C4F202039D
:1009C0009A420BD1102311E04FF480730EE000BF68
:1009D0004FF480530AE000BF012307E001F1680CE7
:1009E0004FF08073624508BF4FF480130B60416B7A
:1009F0004FF48072028401B18847002080BD00005E
:100A0000B0B5044600F02CF9054640F20000C2F2F1
:100A100000000078611C18BF044400BF00F020F9FA
:100A2000401BA042FAD3B0BD2DE9F04F82B00E6852
:100A3000002E00F0038140F20C4C41F200424FF6D0
:100A4000FF7EC4F2010CC4F201020427002401233A
:100A5000C1F2100E4FF0000A4FF00009904208BF9B
:100A60000327009745E000BF012704F00C030F2285
:100A70009A402BEA020207FA03F34FEA9A051A4357
:100A800046F82520D1F804B040F20045C4F2010533
:100A90005FEACB322A6854BF22EA080242EA08021F
:100AA0002A606A685FEA8B3354BF22EA080242EA8E
:100AB00008026A605FEACB23AA6854BF22EA0802F0
:100AC00042EA08025FEA8B23AA60DCF800204FF0BC
:100AD000010354BF22EA080242EA0802CCF80020CF
:100AE0000E680AF1010A36FA0AF204F1040400F071
:100AF000A58003FA0AF816EA080FF1D04E68764589
:100B000012DC122E56D8DFE806F0350B4549555554
:100B100055555555555555555555554D510000BFD1
:100B2000D1F80C9046E000BF4FF6FF72C1F22102EF
:100B300096420FDC0022C1F2110296421AD0002226
:100B4000C1F21202964215D00022C1F22102964251
:100B500010D02FE00022C1F2220296420AD00022D9
:100B6000C1F23102964205D00022C1F23202964211
:100B700020D100BF8A684AB1012A14BFC0F814808E
:100B8000C0F810804FF0080914E000BF4FF00409CE
:100B900010E000BFCA6802F108090BE04FF000093D
:100BA00008E000BFCA6802F1040903E0CA6802F164
:100BB0000C0900BF22460646BAF1080F24BF203AAE
:100BC000043637680F25954027EA050509FA02F231
:100BD0002A433260CA79D2067FF582AF41F2180308
:100BE000C4F202031A6842F001021A601A6802F0A5
:100BF00001020192019A40F20042C4F20102A2F500
:100C00007E762AF0030256F802B040F60002C4F2E3
:100C10000102904210D040F60042C4F2010290421C
:100C20003FF422AF41F20002C4F20102009F904261
:100C300008BF022719E700BF002716E702B0BDE88A
:100C4000F08F0000C26802EA0103914341EA0341C8
:100C500001617047002A08BF090401617047000064
:100C600040F21C20C2F200000068704770B5B8B3B3
:100C7000044690F83D0028B9002084F83C00204646
:100C800000F0B0F8242084F83D002068016821F0CD
:100C900001010160016841F400410160016821F433
:100CA0000041016000F074FA48F28041C0F21E0178
:100CB00040F60013D4F804E088424FF00001C0F27F
:100CC0003D0348F2A16C4FF0000238BF0121984269
:100CD000C0F2010C38BF0122E64538BF0A460AB10E
:100CE000012070BD4DF68361C4F21B31A0FB0112DF
:100CF0002168950C4B684FF4967623F03F0343EA46
:100D00009243754344F6D3564B60C1F262060B6AB8
:100D1000A5FB0656B50923F03F03E64538BF950C01
:100D20006A1C1A430A62CA6948F2A0664CF6FF734D
:100D3000C0F20106B64522EA03020BD801384FEA99
:100D40004E03B0FBF3F001306FF31F30042898BF5F
:100D500004201EE0A368013863B119230EFB03F3DE
:100D6000B0FBF3F001306FF31F3078B100F5804035
:100D700008E000BF0EEB4E03B0FBF3F001306FF361
:100D80001F3028B100F5004003E000BF012000E063
:100D900001201043C8610868D4E9072320F0C0008F
:100DA000104318430860886848F2FF3204F10C06CB
:100DB00090434CCE18431043A5698860C86820F062
:100DC000FF0030432843C860086840F00100086015
:100DD00000202021206484F83D10206384F83E0028
:100DE00070BD000010B586B0006845F20042C4F244
:100DF000000200219042049102D006B010BD00BF55
:100E000041F21804C4F20204206802A940F008006C
:100E10002060206800F00800019001984FF44070B5
:100E20000290122003900320059040F60040C4F287
:100E30000100FFF7F9FD0420C4F20100016841F050
:100E4000E06141F002010160606840F40010606000
:100E5000606800F400100190019806B010BD000019
:100E600040F2000040F21C21C2F20000C2F2000178
:100E700000780A68104408607047000080B542F2AC
:100E80000000C4F20200016841F01001016003207B
:100E900000F08EF80F2000F005F800F027F8002091
:100EA00080BD000070B540F20006C2F2000640F2BC
:100EB00008013278C2F200014FF47A730968B3FB7B
:100EC000F2F20446B1FBF2F1084600F063FB0F2C8E
:100ED0004FF0010508D838B94FF0FF302146002205
:100EE000002500F039F87460284670BD82B041F2E8
:100EF0001800C4F202000168022241F00101016001
:100F0000016801F0010101910199416841F08051AE
:100F10004160406800F08050009000980420C4F2C6
:100F20000100016862F31A61016002B070470000BD
:100F3000002848BF7047C1B200F01F00012202FA2A
:100F400000F04EF20012CEF2000242EAD10121F08E
:100F5000030108607047000010B54EF60C5CCEF23D
:100F6000000CDCF80030C3F3022E8EF00704042CD2
:100F700028BF0424BEF103034FF0FF3E0EFA04F431
:100F800038BF0023A14399400EFA03F39A4311435B
:100F900000F00F0200F160430901043A03F56443D5
:100FA0006244002848BF02F10C03197010BD000014
:100FB0004EF60C51CEF200010A684FF6FF031A40BC
:100FC00060F30A2242F0806040F0FD7008607047D4
:100FD0002DE9F04381B0002800F0858042F200083E
:100FE000C4F202080446D8F800000D4600F00700DD
:100FF00088420CD2D8F8000020F007002843C8F837
:101000000000D8F8000000F00700A8426BD120686B
:1010100041F204098107C4F2020917D5410705D539
:10102000D9F8001041F4E061C9F80010010705D5B6
:10103000D9F8001041F46051C9F80010D9F8001037
:10104000A26821F0F0011143C9F80010C00741D196
:10105000D8F8000000F00700A8420CD9D8F800002A
:1010600020F007002843C8F80000D8F8000000F07E
:101070000700A84237D12068410707D5D9F80010EA
:10108000E26821F4E0611143C9F80010000708D5B7
:10109000D9F80000216920F4605040EAC100C9F885
:1010A0000000D9F8002002F00C00082841F20020CE
:1010B000C0F27A0050D142F22653C2F38341C0F607
:1010C0000003595CD2033BD440F60010C0F23D004F
:1010D000484341E0606802280AD001282AD159F823
:1010E000041C890308D4012001B0BDE8F08300BFCF
:1010F00059F8041C8901F6D5D9F8001021F0030134
:101100000843C9F80000FFF7ABFD064641F28837F7
:10111000D9F80000616800F00C00B0EB810F97D0A7
:10112000FFF79EFD801BB842F2D9032001B0BDE855
:10113000F08300BF59F8041C8907D4D5DCE700BF51
:10114000D9F8002042F20C53C2F34042C0F600032B
:101150009A5C4843B0FBF2F0D9F8001042F20E520C
:10116000C1F30311C0F60002515C40F2080220FAFC
:1011700001F140F20400C2F200000068C2F2000275
:101180001160FFF78FFE002001B0BDE8F083000082
:1011900040F2080041F20401C2F20000C4F2020170
:1011A0000068096842F21E52C1F30221C0F6000233
:1011B000515CC8407047000040F2080041F2040151
:1011C000C2F20000C4F202010068096842F21E5235
:1011D000C1F3C221C0F60002515CC8407047000054
:1011E0002DE9F04182B0002868D00446007841F231
:1011F0000006C007C4F2020625D0706800F00C009B
:1012000004281BD0706800F00C00082802D1706818
:10121000C00313D46068002800F06881B0F5A02FE7
:1012200000F07C81B0F5803F00F07C81306820F4D4
:1012300080303060306820F4802076E130688003B0
:1012400001D56068D0B32078800718D5706810F099
:101250000C0F07D0706800F00C0008286ED1706881
:10126000C0036BD43068800702D52069012825D1DE
:101270003068616920F0F80040EAC10030602078F1
:1012800000071FD42078400732D4E56995B1706813
:1012900000F00C00082840F08F80012D0ED07068FF
:1012A000216A00F480328A4208D1616A00F4701029
:1012B000884203D1002002B0BDE8F081012002B0D5
:1012C000BDE8F081A069002862D00020C4F242206D
:1012D0000121C0F88014FFF7C3FC0546706A80073F
:1012E00000F18C80FFF7BCFC401B0228F6D92AE1F4
:1012F000F06910F0805808D1F06940F08050F0613A
:10130000F06900F080500090009847F20007C4F2A6
:1013100000073868C00529D4386840F48070386008
:10132000FFF79EFC054600BF3868C0051ED4FFF7D6
:1013300097FC401B6428F7D905E100BF206900280D
:1013400040F20000C4F2422000F0828001210160DE
:10135000FFF786FC054600BF306880073FF588AF81
:10136000FFF77EFC401B0228F6D9ECE0E06800287D
:1013700000F08080052800F09780012800F0988018
:10138000306A20F001003062306A20F0040092E000
:101390000020C4F242200021C0F88014FFF760FC56
:1013A000054600BF706A80077FF56CAFFFF758FCF9
:1013B000401B0228F6D9C6E00027C4F242270020CD
:1013C0003866FFF74DFC022D05460BD130688001D1
:1013D00040F1BE80FFF744FC401B02284FF00300A1
:1013E000F4D968E7306880017FF564AFFFF738FC17
:1013F000401B02284FF00300F4D95CE740F20800DC
:10140000C2F20000006844F6D351C1F26201A0FBB1
:101410000101480A019000BF00BF0198411E002849
:1014200001913FF42FAF00BF0198411E00280191A8
:101430003FF428AF00BF0198411E002801913FF4FE
:1014400021AF00BF0198411E00280191E4D119E7A6
:1014500000210160FFF704FC054600BF30688007EB
:101460007FF50DAFFFF7FCFB401B02284FF0030098
:10147000F4D920E7306A20F001003062306A20F0B1
:1014800004003062FFF7ECFB054641F2883700BFED
:10149000306A800720D5FFF7E3FB401BB8424FF0CE
:1014A0000300F5D907E700BF306A40F0040030625E
:1014B000306A40F001003062FFF7D2FB054641F28E
:1014C000883700BF306A800706D4FFF7C9FB401B8E
:1014D000B842F7D937E000BFB8F1000F7FF4D5AEBE
:1014E000F06920F08050F061CFE600BF306820F452
:1014F00080303060306820F480203060FFF7B0FB2F
:10150000054600BF306880037FF59DAEFFF7A8FB5E
:10151000401B64284FF00300F4D9CCE6306840F457
:1015200080203060306840F480303060FFF798FBF6
:10153000054600BF306880033FF585AEFFF790FB9E
:10154000401B6428F6D9032002B0BDE8F08100BF3B
:10155000206AB0F5803F05D17168A26821F400319E
:10156000114371607168626A21F474111143084378
:10157000706001203866FFF773FB04463068800115
:101580003FF598AEFFF76CFB001B02284FF00300FD
:10159000F4D990E6411E0020B0EB116F1CBF012072
:1015A00070474EF21002CEF2000251604EF6235107
:1015B000CEF20001F0230B7007219060116070479C
:1015C000B0B590F83C20012A04BF0220B0BD01F163
:1015D00008053CCDD1E900CE23F47C5322F47052AF
:1015E0001A432EF4F0431A432CF4E0431A4324F434
:1015F000C0431A432A43C96922F480420368114355
:101600005964002180F83C100846B0BD10B590F830
:101610003C20012A4FF0020233D080F83D200268BE
:10162000D2F804E0D2F808C00C682EF0700323430F
:1016300040F2FF74C4F20004A24253600ADCB2F12B
:10164000804F13D040F20043C4F200039A420DD001
:1016500011E000BF42F60043C4F201039A4205D0F4
:1016600040F60003C4F200039A4204D149682CF00A
:101670008003194391600121002280F83D1080F819
:101680003C20104610BD00002DE9F04390F83C309E
:10169000012B04BF0220BDE8F0834FEAB202032A07
:1016A00000F2E980DFE802F0023A78B4036842F61B
:1016B00000461A6AC4F2010622F001021A621D6A8B
:1016C0001A465C6852F818CFB3428E68D1F800E031
:1016D00025F0020545EA06050CD1CE68D1E905786A
:1016E00024F4407425F00C0526F004063C433543F1
:1016F00044EA08042CF0730747EA0E075C609F6118
:101700004F6809695F631D629F6947F008079F6121
:101710009F6927F004079F61AAE000BF036842F6B3
:1017200000461A6AC4F2010622F010021A621D6A0B
:101730001A46D3F804C052F8184FB3428E68D1F855
:1017400000E025F0200545EA061510D1CE68D1E964
:10175000058725F0C0096FF0400505EA06152CF451
:10176000406647EA080745EA090546EA870C24F47B
:10177000E64444EA0E27C3F804C09F614F68096934
:101780009F631D629F6947F400679F619F6927F40B
:1017900080679F616BE000BF036842F600461A6AEB
:1017A000C4F2010622F480721A621D6A1A46D3F846
:1017B00004C052F81CEFB3428E680C6825F4007523
:1017C00045EA062511D1CE68D1E9058725F440699F
:1017D000360240F2FF4526EA05052CF4405647EA5A
:1017E000080745EA090546EA071C2EF07307274358
:1017F000C3F804C0DF614F680969DF631D62DF69F8
:1018000047F00807DF61DF6927F00407DF612FE099
:10181000036842F600471A6AC4F2010722F48052B4
:101820001A621A46D3F820C05D6852F81C4FD1F8EE
:1018300000E08E68BB4204D14F6925F4804545EA3B
:1018400087152CF4005747EA063724F4E64646EAA3
:101850000E265D60DE614E6809691E641F62DF69E5
:1018600047F40067DF61DF6927F48067DF61090201
:10187000136819431160002180F83C100846BDE848
:10188000F0830000002804BF0120704710B5044613
:1018900090F83D0028B9002084F83C00204600F074
:1018A00067F8022084F83D00206840F2FF73026868
:1018B000C4F2000342F6004C9842C4F2010C15DC5D
:1018C000B0F1804F1AD040F20041C4F200018842CA
:1018D00014D0984218DCB0F1804F1DD040F2004186
:1018E000C4F20001884217D01AE000BF604505D05D
:1018F00040F60001C4F200018842EAD1A16822F05A
:1019000070020A439842E6DD604505D040F60001CA
:10191000C4F20001884203D1216922F440720A43D3
:10192000A36922F08001D4F804E0E268194360451D
:101930000160C262C0F828E002D16169CCF83010C1
:1019400001214161002084F8461084F83E1084F89B
:101950003F1084F8401084F8411084F8421084F855
:10196000431084F8441084F8451084F83D1010BDED
:1019700081B0006842F60041C4F20101884201D002
:1019800001B0704741F21800C4F20200016841F44E
:1019900000610160006800F400600090009801B0F0
:1019A0007047000041B1082910D0042914BF00F18C
:1019B000410200F13F020BE090F83E20012A1CBFDB
:1019C00001207047022280F83E2013E000F140021F
:1019D0001278012A1CBF012070470222082907D073
:1019E000042914BF80F8412080F83F2002E000BFA6
:1019F00080F84020006801F01F010122036A8A403C
:101A000023EA02010162036A42F64441C4F2010181
:101A10001A43A1F14403984202620FD040F2FF71D1
:101A2000C4F20001884213DCB0F1804F1CD040F2B8
:101A30000041C4F20001884216D01CE00A6842F45A
:101A400000420A6040F2FF71C4F200018842EBDDFF
:101A500042F60041C4F20101884205D040F600017F
:101A6000C4F20001884206D1816801F0070106290D
:101A700004BF00207047016841F0010101600020AF
:101A8000704700007047000070470000B0B582B09A
:101A9000026805461068D368546900F02F012029B8
:101AA00003F0200106D129B1284602B0BDE8B040BC
:101AB00000F092BB5FEA007C1EBF04F0010E03F44D
:101AC000907414EB0E0453D1296B012905D110F049
:101AD000100118BF13F0100136D1010622D513F002
:101AE00080011FD095F83D0021283FD1A868B0F5AE
:101AF000805F03D12869002800F0F880286A411C23
:101B0000296200785060E88C01380104E8842DD106
:101B1000D06820F08000D060D06840F04000D060F5
:101B200002B0B0BD400621D513F040001ED0D068F1
:101B3000202120F04000D060284685F83D1002B0FA
:101B4000BDE8B04000F0D4B90020019010680190C9
:101B50005068019001985069400611D4A88DE98D14
:101B6000EB8D002B18BF884240F0A68002B0B0BDBC
:101B7000C40718BF13F480732CD1430730D436E068
:101B8000A86B01684B689CB2002CEFD0A98D8C42E9
:101B9000ECD2EB858369202B17D0D16821F48071BA
:101BA000D160516921F001015161516921F0400179
:101BB0005161202185F83E1000212963D16821F070
:101BC0001001D160FEF7A2FEA98DE88D081A81B23E
:101BD000284685E02B6C43F001032B64430706D5B0
:101BE000BEF1000F03D02B6C43F002032B6483077C
:101BF00006D5BEF1000F03D02B6C43F004032B6419
:101C0000BCF1000F09D541EA0E03B3FA83F35B0977
:101C100003D12B6C43F008032B642B6C002BA5D055
:101C200010F0200018BF002903D0284600F0D4FA95
:101C30002A685069296C00F0400001F00801401842
:101C40002CD0D06820F49070D060506920F0010052
:101C50005061286B012803D1D06820F01000D060BB
:101C6000202085F83E0000202863506940061DD5DD
:101C7000506920F040005061A86BB8B142F2CD111C
:101C8000C0F600014163FEF765FE00283FF46EAF29
:101C9000A86B416B02B0BDE8B04008472846FFF78B
:101CA000F3FE0020286402B0B0BD00BF284602B099
:101CB000BDE8B040FFF7E8BED368401A23F4907344
:101CC000D360536981B223F001035361202385F867
:101CD0003E3000232B63D368284623F01003D360E3
:101CE00002B0BDE8B040FFF7CDBE00BF286A30F8B3
:101CF000021B6FF35F215160286204E7002804BFD4
:101D00000120704710B5044690F83D0028B9002026
:101D100084F83C00204600F061F8242084F83D005F
:101D20002068D4E90212C36823F40053C360036936
:101D300023F440531A430261D4E904231143C268D7
:101D4000194341F20C639A431143C1604169A2698E
:101D500021F44071114343F60002C4F201029042A3
:101D6000416103D0FFF714FA02E000BFFFF724FA45
:101D70006268192148439100B0FBF1F048F21F510D
:101D8000C5F2EB11A0FB01235A094FF69C73C0F674
:101D9000FF7302FB0300322303EB0010A0FB0101E1
:101DA000F02303EA5113206803EB0212C1F343113D
:101DB00011448160016921F490410161416921F080
:101DC0002A014161C16841F40051C1600020202115
:101DD000206484F83D1084F83E1010BD70B586B0C4
:101DE000006844F20041C4F20001002688420596D2
:101DF000CDE90366029649D043F60001C4F2010121
:101E0000884270D141F21800C4F20200016802ADAC
:101E100041F480410160016801F480410191019920
:101E2000016841F0080101600068294600F00800DF
:101E30000190019840200290022003900320059019
:101E400040F60000C4F2010000F580642046FEF771
:101E5000EBFD802002900020CDE9030020462946BA
:101E6000FEF7E2FD0420C4F201000168002241F007
:101E7000E06141F00401016025200021FFF76CF8CA
:101E80002520FFF755F806B070BD00BF41F21800DD
:101E9000C4F20200416840F6000441F400314160A0
:101EA0004168C4F2010401F4003101910199016813
:101EB00002AD41F0040101600068294600F0040011
:101EC00001900198042002900220039003200590C5
:101ED0002046FEF7A9FD0820CDE902062046294646
:101EE0000496FEF7A1FD06B070BD0000704700002B
:101EF00070470000FEE700002DE9F04F85B041F289
:101F00001800C4F20200016840F6004A41F01001D6
:101F100001600168C4F2010A01F010010191019908
:101F200001680AF5806541F0200101600168002226
:101F300001F020010191019901684FF4005441F032
:101F40000401016001684FF0000801F004010191F3
:101F50000199016841F00801016000684FF40051E7
:101F600000F00800019001982846FEF773FEAAF5DC
:101F70008066304648F2F001002248F2F009FEF790
:101F800069FE504638210022FEF764FE01AF01943D
:101F900001244FF0020B28463946CDE90248CDF81E
:101FA00010B0FEF741FD30463946CDE90194CDE948
:101FB000038BFEF739FD0320CDE901085046394671
:101FC0000394FEF731FD382001A981E8110950463C
:101FD0003946FEF729FD05B0BDE8F08F80B540F227
:101FE000740045F20041C2F20000C4F2000148F260
:101FF000A06200234FF4804CC0F2010280E80E0082
:10200000C0E9033CC0E90533C0E90733FEF72EFE03
:10201000002808BF80BDBDE88040FEF771BC00000D
:1020200070B598B042F6004540F2C800C4F2010510
:102030000021C2F20000072240F2F3131191CDE912
:102040000F11CDE90D11CDE90B11CDE90911CDE944
:102050000711CDE90511CDE90311CDE90111C0E961
:102060000052C0E90213C0E904118161FFF70AFCC4
:10207000002818BFFEF744FC40F2C800C2F200007E
:1020800010A9FFF7C3FA002818BFFEF739FC60203B
:1020900009900020CDE90A00CDE90C00CDE90E0041
:1020A00040F2C800C2F2000009A90022FFF7ECFAD2
:1020B000002818BFFEF724FC40F2C800C2F200005E
:1020C00009A90422FFF7E0FA002818BFFEF718FC60
:1020D00040F2C8044FF40050C2F2000400260690FB
:1020E00001A920460596CDE90366CDE9016608966B
:1020F000FFF766FA002818BFFEF702FC2068169664
:10210000A84201D018B070BD41F21800C4F202001C
:10211000016841F004010160006814A900F00400A6
:10212000139013984FF4407014900220159017905C
:10213000A5F51050FEF778FC18B070BD80B540F2E0
:10214000101043F60001C2F20000C4F201010023A6
:102150004FF00C0C4FF4E13280E80E00C0E903337D
:10216000C0E905C3C361FFF7C9FD002808BF80BDF2
:10217000BDE88040FEF7C4BB80B540F2541044F285
:102180000041C2F20000C4F2000100234FF00C0C29
:102190004FF4E13280E80E00C0E90333C0E905C323
:1021A000C361FFF7ABFD002808BF80BDBDE88040DC
:1021B000FEF7A6BBFEE70000FEE700007047000048
:1021C00070470000FEF74CBE70470000406A0021D7
:1021D000C185C184FFF758BC81B090F83E10222918
:1021E00021D183680246B3F5805F09D152F8281FD8
:1021F00052F8183C002B3FD003685B680AE000BF30
:1022000052F8281F13B90369002BF5D003685B68E7
:1022100003F07F030B70116801311160C18D01392A
:102220000A04C18502D001B0704700BF0168CA68C6
:1022300022F02002CA60CA6822F48072CA604A6929
:1022400022F001024A61202280F83E20026B012A1E
:102250001AD100220263CB6823F01003CB600B6815
:10226000DB0605D500920A68009249680091009942
:10227000818D01B0FFF706BC026852686FF35F22E0
:1022800021F8022B8162C9E701B0FFF72FBE0000E1
:10229000F0B583B040F21014C2F200042046FFF7FC
:1022A000F5FB2668306880063AD43068C00635D51C
:1022B00000270297306840F29C1502907068C2F2C5
:1022C000000502900298F06820A120F01000F06054
:1022D0002846FEF745F858B1281D1EA101AAFDF7B2
:1022E0007BFF019840F270012668C2F2000108707D
:1022F00040F27100C2F200000121017040F29C1016
:10230000C2F200008021FEF73DF840F29810C2F2C0
:1023100000000770F06840F02000F06003B0F0BDEE
:10232000F06840F2981140F01000F060C2F2000135
:1023300070680A78531C0B7002F07F0140F29C1207
:10234000C2F20002505403B0F0BD00BF4B657920CB
:102350000000000025640000FEE7000090B0FEF7DA
:102360008DFD06AC201D2421FEF70CF802200690FE
:1023700001200A9010200B90002520460D95FEF7B5
:102380002FFF28B1EFF3108072B600BFFEE700BF49
:102390000F20CDE9010501A80021CDE903550595E0
:1023A000FEF716FE20B1EFF3108072B6FEE700BF15
:1023B00040F60004C4F20104FFF79EFDFFF70EFE95
:1023C000FFF7BCFEFFF7D8FEFFF72AFE40F2C80574
:1023D000C2F20005284600214FF00008FFF7E2FA9C
:1023E00028460421FFF7DEFA40F21010C2F2000086
:1023F000006840F27007C16804F5006A41F02001EE
:10240000C16040F25410C2F200000068C2F200073E
:10241000C1684FF00C0941F020010025C1603DE08A
:10242000AEB2C6F1050000EB80004000FEF7E8FA0E
:10243000204610210122A9EB4606FEF70BFC304690
:10244000FEF7DEFA204610210022FEF703FC2046AC
:1024500020210122FEF7FEFB3046FEF7D1FA20468E
:1024600020210022FEF7F6FB204640210122FEF744
:10247000F1FB3046FEF7C4FA204640210022FEF769
:10248000E9FB204680210122FEF7E4FB3046FEF7FF
:10249000B7FA204680210022FEF7DCFB3220FEF74F
:1024A000AFFA50464FF40051FEF7CCFB787828B1D4
:1024B000387887F80180062838BF05462804AFD150
:1024C000204610210022FEF7C5FB204620210022D5
:1024D000FEF7C0FB204640210022FEF7BBFBD8E7F9
:1024E00010B500290AD00878002807D0054878449C
:1024F000FEF7BAF9002801D0002010BD0248784448
:1025000010BD00006A00000062000000010200002F
:102510000000000000000102030406070809000093
:1025200000000102030402030405060708090A0B60
:102530000C0D0E0F1010000068260008000000208F
:102540001000000028010008782600081000002074
:1025500010080000440100081001000043000000C2
:10256000F8FFFFFF004040404040404040404141B4
:102570004141414040404040404040404040404058
:1025800040404040400502020202020202020202F2
:1025900002020202022020202020202020202002EF
:1025A000020202020202909090909090101010107F
:1025B000101010101010101010101010101010101B
:1025C00002020202020288888888888808080808AF
:1025D000080808080808080808080808080808087B
:1025E00002020202400000000000000000000000A3
:1025F00000000000000000000000000000000000DB
:1026000000000000000000000000000000000000CA
:1026100000000000000000000000000000000000BA
:1026200000000000000000000000000000000000AA
:10263000000000000000000000000000000000009A
:10264000000000000000000000000000000000008A
:10265000000000000000000000000000000000007A
:102660000000000000000000010000001000000059
:082670000024F400000000004A
:04000005080000ED02
:00000001FF
